{
  "address": "0x2acd323f5a715Af37b9dC0E5e9d79897c9669d8C",
  "abi": [
    {
      "inputs": [
        {
          "internalType": "address",
          "name": "karmaAddress",
          "type": "address"
        },
        {
          "internalType": "uint256[]",
          "name": "initialBuckets",
          "type": "uint256[]"
        }
      ],
      "stateMutability": "nonpayable",
      "type": "constructor"
    },
    {
      "inputs": [],
      "name": "CallerNotStealth",
      "type": "error"
    },
    {
      "inputs": [],
      "name": "ECDSAInvalidSignature",
      "type": "error"
    },
    {
      "inputs": [
        {
          "internalType": "uint256",
          "name": "length",
          "type": "uint256"
        }
      ],
      "name": "ECDSAInvalidSignatureLength",
      "type": "error"
    },
    {
      "inputs": [
        {
          "internalType": "bytes32",
          "name": "s",
          "type": "bytes32"
        }
      ],
      "name": "ECDSAInvalidSignatureS",
      "type": "error"
    },
    {
      "inputs": [],
      "name": "ExceedsBorrowLimit",
      "type": "error"
    },
    {
      "inputs": [],
      "name": "InsufficientRepayment",
      "type": "error"
    },
    {
      "inputs": [],
      "name": "InterestTooLow",
      "type": "error"
    },
    {
      "inputs": [],
      "name": "InvalidBucket",
      "type": "error"
    },
    {
      "inputs": [],
      "name": "InvalidDuration",
      "type": "error"
    },
    {
      "inputs": [],
      "name": "InvalidShortString",
      "type": "error"
    },
    {
      "inputs": [],
      "name": "LowKarma",
      "type": "error"
    },
    {
      "inputs": [],
      "name": "NotBorrower",
      "type": "error"
    },
    {
      "inputs": [],
      "name": "NotOverdue",
      "type": "error"
    },
    {
      "inputs": [],
      "name": "NothingToSend",
      "type": "error"
    },
    {
      "inputs": [],
      "name": "PermitAlreadyUsed",
      "type": "error"
    },
    {
      "inputs": [],
      "name": "PermitExpired",
      "type": "error"
    },
    {
      "inputs": [],
      "name": "ReentrancyGuardReentrantCall",
      "type": "error"
    },
    {
      "inputs": [
        {
          "internalType": "string",
          "name": "str",
          "type": "string"
        }
      ],
      "name": "StringTooLong",
      "type": "error"
    },
    {
      "inputs": [],
      "name": "TransferFailed",
      "type": "error"
    },
    {
      "inputs": [],
      "name": "UnknownLoan",
      "type": "error"
    },
    {
      "inputs": [],
      "name": "WrongStatus",
      "type": "error"
    },
    {
      "anonymous": false,
      "inputs": [],
      "name": "EIP712DomainChanged",
      "type": "event"
    },
    {
      "anonymous": false,
      "inputs": [
        {
          "indexed": true,
          "internalType": "uint256",
          "name": "loanId",
          "type": "uint256"
        },
        {
          "indexed": true,
          "internalType": "address",
          "name": "lender",
          "type": "address"
        },
        {
          "indexed": false,
          "internalType": "uint256",
          "name": "amount",
          "type": "uint256"
        }
      ],
      "name": "LenderPaidOut",
      "type": "event"
    },
    {
      "anonymous": false,
      "inputs": [
        {
          "indexed": true,
          "internalType": "uint256",
          "name": "loanId",
          "type": "uint256"
        }
      ],
      "name": "LoanCancelled",
      "type": "event"
    },
    {
      "anonymous": false,
      "inputs": [
        {
          "indexed": true,
          "internalType": "uint256",
          "name": "loanId",
          "type": "uint256"
        }
      ],
      "name": "LoanDefaulted",
      "type": "event"
    },
    {
      "anonymous": false,
      "inputs": [
        {
          "indexed": true,
          "internalType": "uint256",
          "name": "loanId",
          "type": "uint256"
        },
        {
          "indexed": false,
          "internalType": "uint256",
          "name": "dueTime",
          "type": "uint256"
        }
      ],
      "name": "LoanFullyFunded",
      "type": "event"
    },
    {
      "anonymous": false,
      "inputs": [
        {
          "indexed": true,
          "internalType": "uint256",
          "name": "loanId",
          "type": "uint256"
        },
        {
          "indexed": true,
          "internalType": "address",
          "name": "lender",
          "type": "address"
        },
        {
          "indexed": false,
          "internalType": "uint256",
          "name": "amount",
          "type": "uint256"
        },
        {
          "indexed": false,
          "internalType": "uint256",
          "name": "totalFunded",
          "type": "uint256"
        }
      ],
      "name": "LoanFunded",
      "type": "event"
    },
    {
      "anonymous": false,
      "inputs": [
        {
          "indexed": true,
          "internalType": "uint256",
          "name": "loanId",
          "type": "uint256"
        },
        {
          "indexed": false,
          "internalType": "uint256",
          "name": "totalRepaid",
          "type": "uint256"
        }
      ],
      "name": "LoanRepaid",
      "type": "event"
    },
    {
      "anonymous": false,
      "inputs": [
        {
          "indexed": true,
          "internalType": "uint256",
          "name": "loanId",
          "type": "uint256"
        },
        {
          "indexed": true,
          "internalType": "address",
          "name": "borrowerStealth",
          "type": "address"
        },
        {
          "indexed": false,
          "internalType": "uint256",
          "name": "bucketAmount",
          "type": "uint256"
        },
        {
          "indexed": false,
          "internalType": "uint256",
          "name": "interestBps",
          "type": "uint256"
        },
        {
          "indexed": false,
          "internalType": "uint256",
          "name": "duration",
          "type": "uint256"
        }
      ],
      "name": "LoanRequested",
      "type": "event"
    },
    {
      "inputs": [],
      "name": "INTEREST_DISCOUNT_BPS_PER_KARMA",
      "outputs": [
        {
          "internalType": "uint256",
          "name": "",
          "type": "uint256"
        }
      ],
      "stateMutability": "view",
      "type": "function"
    },
    {
      "inputs": [],
      "name": "KARMA_BORROW_RATE",
      "outputs": [
        {
          "internalType": "uint256",
          "name": "",
          "type": "uint256"
        }
      ],
      "stateMutability": "view",
      "type": "function"
    },
    {
      "inputs": [],
      "name": "MIN_INTEREST_BPS",
      "outputs": [
        {
          "internalType": "uint256",
          "name": "",
          "type": "uint256"
        }
      ],
      "stateMutability": "view",
      "type": "function"
    },
    {
      "inputs": [],
      "name": "MIN_KARMA",
      "outputs": [
        {
          "internalType": "uint256",
          "name": "",
          "type": "uint256"
        }
      ],
      "stateMutability": "view",
      "type": "function"
    },
    {
      "inputs": [
        {
          "internalType": "uint256",
          "name": "",
          "type": "uint256"
        }
      ],
      "name": "buckets",
      "outputs": [
        {
          "internalType": "uint256",
          "name": "",
          "type": "uint256"
        }
      ],
      "stateMutability": "view",
      "type": "function"
    },
    {
      "inputs": [],
      "name": "bucketsList",
      "outputs": [
        {
          "internalType": "uint256[]",
          "name": "",
          "type": "uint256[]"
        }
      ],
      "stateMutability": "view",
      "type": "function"
    },
    {
      "inputs": [
        {
          "internalType": "uint256",
          "name": "loanId",
          "type": "uint256"
        }
      ],
      "name": "cancelLoan",
      "outputs": [],
      "stateMutability": "nonpayable",
      "type": "function"
    },
    {
      "inputs": [],
      "name": "domainSeparator",
      "outputs": [
        {
          "internalType": "bytes32",
          "name": "",
          "type": "bytes32"
        }
      ],
      "stateMutability": "view",
      "type": "function"
    },
    {
      "inputs": [],
      "name": "eip712Domain",
      "outputs": [
        {
          "internalType": "bytes1",
          "name": "fields",
          "type": "bytes1"
        },
        {
          "internalType": "string",
          "name": "name",
          "type": "string"
        },
        {
          "internalType": "string",
          "name": "version",
          "type": "string"
        },
        {
          "internalType": "uint256",
          "name": "chainId",
          "type": "uint256"
        },
        {
          "internalType": "address",
          "name": "verifyingContract",
          "type": "address"
        },
        {
          "internalType": "bytes32",
          "name": "salt",
          "type": "bytes32"
        },
        {
          "internalType": "uint256[]",
          "name": "extensions",
          "type": "uint256[]"
        }
      ],
      "stateMutability": "view",
      "type": "function"
    },
    {
      "inputs": [
        {
          "internalType": "uint256",
          "name": "loanId",
          "type": "uint256"
        }
      ],
      "name": "fundLoan",
      "outputs": [],
      "stateMutability": "payable",
      "type": "function"
    },
    {
      "inputs": [
        {
          "internalType": "uint256",
          "name": "baseBps",
          "type": "uint256"
        },
        {
          "internalType": "uint256",
          "name": "karmaBalance",
          "type": "uint256"
        }
      ],
      "name": "getAdjustedInterestBps",
      "outputs": [
        {
          "internalType": "uint256",
          "name": "",
          "type": "uint256"
        }
      ],
      "stateMutability": "pure",
      "type": "function"
    },
    {
      "inputs": [
        {
          "internalType": "uint256",
          "name": "loanId",
          "type": "uint256"
        }
      ],
      "name": "getLenders",
      "outputs": [
        {
          "internalType": "address[]",
          "name": "lenders",
          "type": "address[]"
        },
        {
          "internalType": "uint256[]",
          "name": "amounts",
          "type": "uint256[]"
        }
      ],
      "stateMutability": "view",
      "type": "function"
    },
    {
      "inputs": [
        {
          "internalType": "uint256",
          "name": "loanId",
          "type": "uint256"
        }
      ],
      "name": "getLoan",
      "outputs": [
        {
          "components": [
            {
              "internalType": "address",
              "name": "borrowerStealth",
              "type": "address"
            },
            {
              "internalType": "uint256",
              "name": "bucketAmount",
              "type": "uint256"
            },
            {
              "internalType": "uint256",
              "name": "interestBps",
              "type": "uint256"
            },
            {
              "internalType": "uint256",
              "name": "duration",
              "type": "uint256"
            },
            {
              "internalType": "uint256",
              "name": "fundedAmount",
              "type": "uint256"
            },
            {
              "internalType": "uint256",
              "name": "fundedAt",
              "type": "uint256"
            },
            {
              "internalType": "uint256",
              "name": "dueTime",
              "type": "uint256"
            },
            {
              "internalType": "uint256",
              "name": "createdAt",
              "type": "uint256"
            },
            {
              "internalType": "enum BucketLending.Status",
              "name": "status",
              "type": "uint8"
            }
          ],
          "internalType": "struct BucketLending.Loan",
          "name": "",
          "type": "tuple"
        }
      ],
      "stateMutability": "view",
      "type": "function"
    },
    {
      "inputs": [],
      "name": "getLoans",
      "outputs": [
        {
          "components": [
            {
              "internalType": "address",
              "name": "borrowerStealth",
              "type": "address"
            },
            {
              "internalType": "uint256",
              "name": "bucketAmount",
              "type": "uint256"
            },
            {
              "internalType": "uint256",
              "name": "interestBps",
              "type": "uint256"
            },
            {
              "internalType": "uint256",
              "name": "duration",
              "type": "uint256"
            },
            {
              "internalType": "uint256",
              "name": "fundedAmount",
              "type": "uint256"
            },
            {
              "internalType": "uint256",
              "name": "fundedAt",
              "type": "uint256"
            },
            {
              "internalType": "uint256",
              "name": "dueTime",
              "type": "uint256"
            },
            {
              "internalType": "uint256",
              "name": "createdAt",
              "type": "uint256"
            },
            {
              "internalType": "enum BucketLending.Status",
              "name": "status",
              "type": "uint8"
            }
          ],
          "internalType": "struct BucketLending.Loan[]",
          "name": "",
          "type": "tuple[]"
        }
      ],
      "stateMutability": "view",
      "type": "function"
    },
    {
      "inputs": [
        {
          "internalType": "uint256",
          "name": "karmaBalance",
          "type": "uint256"
        }
      ],
      "name": "getMaxBorrow",
      "outputs": [
        {
          "internalType": "uint256",
          "name": "",
          "type": "uint256"
        }
      ],
      "stateMutability": "pure",
      "type": "function"
    },
    {
      "inputs": [
        {
          "internalType": "address",
          "name": "stealth",
          "type": "address"
        },
        {
          "internalType": "uint256",
          "name": "bucketAmount",
          "type": "uint256"
        },
        {
          "internalType": "uint256",
          "name": "baseInterestBps",
          "type": "uint256"
        },
        {
          "internalType": "uint256",
          "name": "duration",
          "type": "uint256"
        },
        {
          "internalType": "uint256",
          "name": "deadline",
          "type": "uint256"
        },
        {
          "internalType": "bytes32",
          "name": "salt",
          "type": "bytes32"
        }
      ],
      "name": "hashBorrowPermit",
      "outputs": [
        {
          "internalType": "bytes32",
          "name": "",
          "type": "bytes32"
        }
      ],
      "stateMutability": "view",
      "type": "function"
    },
    {
      "inputs": [
        {
          "internalType": "uint256",
          "name": "amount",
          "type": "uint256"
        }
      ],
      "name": "isValidBucket",
      "outputs": [
        {
          "internalType": "bool",
          "name": "",
          "type": "bool"
        }
      ],
      "stateMutability": "view",
      "type": "function"
    },
    {
      "inputs": [],
      "name": "karma",
      "outputs": [
        {
          "internalType": "contract IKarma",
          "name": "",
          "type": "address"
        }
      ],
      "stateMutability": "view",
      "type": "function"
    },
    {
      "inputs": [],
      "name": "loansCount",
      "outputs": [
        {
          "internalType": "uint256",
          "name": "",
          "type": "uint256"
        }
      ],
      "stateMutability": "view",
      "type": "function"
    },
    {
      "inputs": [
        {
          "internalType": "uint256",
          "name": "loanId",
          "type": "uint256"
        }
      ],
      "name": "markDefault",
      "outputs": [],
      "stateMutability": "nonpayable",
      "type": "function"
    },
    {
      "inputs": [],
      "name": "maxBucket",
      "outputs": [
        {
          "internalType": "uint256",
          "name": "",
          "type": "uint256"
        }
      ],
      "stateMutability": "view",
      "type": "function"
    },
    {
      "inputs": [
        {
          "internalType": "bytes32",
          "name": "",
          "type": "bytes32"
        }
      ],
      "name": "permitUsed",
      "outputs": [
        {
          "internalType": "bool",
          "name": "",
          "type": "bool"
        }
      ],
      "stateMutability": "view",
      "type": "function"
    },
    {
      "inputs": [
        {
          "internalType": "uint256",
          "name": "loanId",
          "type": "uint256"
        }
      ],
      "name": "repayLoan",
      "outputs": [],
      "stateMutability": "payable",
      "type": "function"
    },
    {
      "inputs": [
        {
          "internalType": "address",
          "name": "stealth",
          "type": "address"
        },
        {
          "internalType": "uint256",
          "name": "bucketAmount",
          "type": "uint256"
        },
        {
          "internalType": "uint256",
          "name": "baseInterestBps",
          "type": "uint256"
        },
        {
          "internalType": "uint256",
          "name": "duration",
          "type": "uint256"
        },
        {
          "internalType": "uint256",
          "name": "deadline",
          "type": "uint256"
        },
        {
          "internalType": "bytes32",
          "name": "salt",
          "type": "bytes32"
        },
        {
          "internalType": "bytes",
          "name": "signature",
          "type": "bytes"
        }
      ],
      "name": "requestLoanWithPermit",
      "outputs": [
        {
          "internalType": "uint256",
          "name": "loanId",
          "type": "uint256"
        }
      ],
      "stateMutability": "nonpayable",
      "type": "function"
    },
    {
      "inputs": [
        {
          "internalType": "uint256",
          "name": "loanId",
          "type": "uint256"
        }
      ],
      "name": "totalOwed",
      "outputs": [
        {
          "internalType": "uint256",
          "name": "",
          "type": "uint256"
        }
      ],
      "stateMutability": "view",
      "type": "function"
    }
  ],
  "transactionHash": "0x2d79977c6e5de3f00ec3f644e0856d688e17d23828697405e7f20092524c4adf",
  "args": [
    "0x0700be6f329cc48c38144f71c898b72795db6c1b",
    [
      "100000000000000000",
      "500000000000000000",
      "1000000000000000000"
    ]
  ],
  "numDeployments": 1,
  "solcInputHash": "7058d50207b793b6c8e2927d14562eb5",
  "bytecode": "0x6101806040523480156200001257600080fd5b506040516200277b3803806200277b8339810160408190526200003591620002f5565b604080518082018252600d81526c4275636b65744c656e64696e6760981b602080830191909152825180840190935260018352603160f81b90830152906200007f82600062000263565b610120526200009081600162000263565b61014052815160208084019190912060e052815190820120610100524660a0526200011e60e05161010051604080517f8b73c3c69bb8fe3d512ecc4cf759cc79239f7b179b0ffacaa9a75d522b39400f60208201529081019290925260608201524660808201523060a082015260009060c00160405160208183030381529060405280519060200120905090565b60805250503060c05260016002556001600160a01b0382166101605280516200017b5760405162461bcd60e51b815260206004820152600a6024820152696e6f206275636b65747360b01b60448201526064015b60405180910390fd5b60005b81518110156200025a5780156200021757816200019d600183620003e2565b81518110620001b057620001b062000404565b6020026020010151828281518110620001cd57620001cd62000404565b602002602001015111620002175760405162461bcd60e51b815260206004820152601060248201526f189d58dad95d1cc81d5b9cdbdc9d195960821b604482015260640162000172565b60038282815181106200022e576200022e62000404565b60209081029190910181015182546001818101855560009485529290932090920191909155016200017e565b505050620005ed565b600060208351101562000283576200027b836200029c565b905062000296565b81620002908482620004ab565b5060ff90505b92915050565b600080829050601f81511115620002ca578260405163305a27a960e01b815260040162000172919062000577565b8051620002d782620005c8565b179392505050565b634e487b7160e01b600052604160045260246000fd5b600080604083850312156200030957600080fd5b82516001600160a01b03811681146200032157600080fd5b602084810151919350906001600160401b03808211156200034157600080fd5b818601915086601f8301126200035657600080fd5b8151818111156200036b576200036b620002df565b8060051b604051601f19603f83011681018181108582111715620003935762000393620002df565b604052918252848201925083810185019189831115620003b257600080fd5b938501935b82851015620003d257845184529385019392850192620003b7565b8096505050505050509250929050565b818103818111156200029657634e487b7160e01b600052601160045260246000fd5b634e487b7160e01b600052603260045260246000fd5b600181811c908216806200042f57607f821691505b6020821081036200045057634e487b7160e01b600052602260045260246000fd5b50919050565b601f821115620004a6576000816000526020600020601f850160051c81016020861015620004815750805b601f850160051c820191505b81811015620004a2578281556001016200048d565b5050505b505050565b81516001600160401b03811115620004c757620004c7620002df565b620004df81620004d884546200041a565b8462000456565b602080601f831160018114620005175760008415620004fe5750858301515b600019600386901b1c1916600185901b178555620004a2565b600085815260208120601f198616915b82811015620005485788860151825594840194600190910190840162000527565b5085821015620005675787850151600019600388901b60f8161c191681555b5050505050600190811b01905550565b60006020808352835180602085015260005b81811015620005a75785810183015185820160400152820162000589565b506000604082860101526040601f19601f8301168501019250505092915050565b80516020808301519190811015620004505760001960209190910360031b1b16919050565b60805160a05160c05160e051610100516101205161014051610160516121216200065a6000396000818161021201526109a4015260006116370152600061160a015260006118a30152600061187b015260006117d6015260006118000152600061182a01526121216000f3fe6080604052600436106101665760003560e01c80638f7afcac116100d1578063b3767f0a1161008a578063e1d927c811610064578063e1d927c814610449578063e926e9af14610469578063f698da2514610489578063ffed42671461049e57600080fd5b8063b3767f0a146103f4578063bdbfa3de14610409578063d9a89d991461042957600080fd5b80638f7afcac14610359578063997f3ed61461036e5780639b51fb0d1461038a5780639d11ed75146103aa578063aa4a8711146103bf578063ab7b1c89146103e157600080fd5b80637793af9c116101235780637793af9c1461029a5780637ad55b93146102ba5780637b5210d8146102da5780637c37ca82146102fa578063846b909a1461031c57806384b0196e1461033157600080fd5b80633f5691c81461016b578063504006ca146101935780636477c7f8146101c057806374a8569b1461020057806374c05ba71461024c5780637588e8ec1461027a575b600080fd5b34801561017757600080fd5b506101806104b9565b6040519081526020015b60405180910390f35b34801561019f57600080fd5b506101b36101ae366004611c49565b6104ed565b60405161018a9190611cf8565b3480156101cc57600080fd5b506101f06101db366004611c49565b60046020526000908152604090205460ff1681565b604051901515815260200161018a565b34801561020c57600080fd5b506102347f000000000000000000000000000000000000000000000000000000000000000081565b6040516001600160a01b03909116815260200161018a565b34801561025857600080fd5b5061026c610267366004611c49565b6105da565b60405161018a929190611d43565b34801561028657600080fd5b50610180610295366004611dc0565b610738565b3480156102a657600080fd5b506101f06102b5366004611c49565b6107d3565b3480156102c657600080fd5b506101806102d5366004611e0a565b61081f565b3480156102e657600080fd5b506101806102f5366004611c49565b610bea565b34801561030657600080fd5b5061030f610c16565b60405161018a9190611ebd565b61032f61032a366004611c49565b610c6e565b005b34801561033d57600080fd5b50610346610ed5565b60405161018a9796959493929190611f16565b34801561036557600080fd5b50610180603281565b34801561037a57600080fd5b50610180670de0b6b3a764000081565b34801561039657600080fd5b506101806103a5366004611c49565b610f1b565b3480156103b657600080fd5b50600554610180565b3480156103cb57600080fd5b506103d4610f3c565b60405161018a9190611f86565b61032f6103ef366004611c49565b61102a565b34801561040057600080fd5b50610180600a81565b34801561041557600080fd5b5061032f610424366004611c49565b611186565b34801561043557600080fd5b50610180610444366004611fd5565b61135f565b34801561045557600080fd5b5061032f610464366004611c49565b6113bb565b34801561047557600080fd5b50610180610484366004611c49565b61149f565b34801561049557600080fd5b506101806114fc565b3480156104aa57600080fd5b5061018066b1a2bc2ec5000081565b60038054600091906104cd9060019061200d565b815481106104dd576104dd612020565b9060005260206000200154905090565b6104f5611be4565b60055482106105175760405163a2df1a7b60e01b815260040160405180910390fd5b6005828154811061052a5761052a612020565b60009182526020918290206040805161012081018252600990930290910180546001600160a01b03168352600181015493830193909352600283015490820152600382015460608201526004808301546080830152600583015460a0830152600683015460c0830152600783015460e0830152600883015491929161010084019160ff909116908111156105c0576105c0611c62565b60048111156105d1576105d1611c62565b90525092915050565b600554606090819083106106015760405163a2df1a7b60e01b815260040160405180910390fd5b600083815260066020908152604091829020805483518184028101840190945280845290929183919083018282801561066357602002820191906000526020600020905b81546001600160a01b03168152600190910190602001808311610645575b50508454939650505067ffffffffffffffff821115905061068657610686612036565b6040519080825280602002602001820160405280156106af578160200160208202803683370190505b50915060005b8154811015610731576007600086815260200190815260200160002060008383815481106106e5576106e5612020565b60009182526020808320909101546001600160a01b03168352820192909252604001902054835184908390811061071e5761071e612020565b60209081029190910101526001016106b5565b5050915091565b604080517f38508d75b1253e65e0fa03c3519a62b6908b716fcb600675eb651164700ad3eb602082015230918101919091526001600160a01b03871660608201526080810186905260a0810185905260c0810184905260e0810183905261010081018290526000908190610120016040516020818303038152906040528051906020012090506107c78161150b565b98975050505050505050565b6000805b6003548110156108165782600382815481106107f5576107f5612020565b90600052602060002001540361080e5750600192915050565b6001016107d7565b50600092915050565b6000336001600160a01b038a161461084a5760405163fbfe549560e01b815260040160405180910390fd5b8442111561086b5760405163068568f360e21b815260040160405180910390fd5b610874886107d3565b6108915760405163778aa76b60e01b815260040160405180910390fd5b610e108610806108a457506301e1338086115b156108c257604051637616640160e01b815260040160405180910390fd5b60328710156108e457604051630dbdb93f60e31b815260040160405180910390fd5b60006108f48a8a8a8a8a8a610738565b60008181526004602052604090205490915060ff16156109275760405163493efc1960e01b815260040160405180910390fd5b6000818152600460209081526040808320805460ff191660011790558051601f870183900483028101830190915285815261097f91849190889088908190840183828082843760009201919091525061153892505050565b6040516370a0823160e01b81526001600160a01b0380831660048301529192506000917f000000000000000000000000000000000000000000000000000000000000000016906370a0823190602401602060405180830381865afa1580156109eb573d6000803e3d6000fd5b505050506040513d601f19601f82011682018060405250810190610a0f919061204c565b9050670de0b6b3a7640000811015610a3a576040516340e6f3a360e01b815260040160405180910390fd5b610a4381610bea565b8b1115610a63576040516397ba4de360e01b815260040160405180910390fd5b6000610a6f8b8361135f565b9050600580549050945060056040518061012001604052808f6001600160a01b031681526020018e81526020018381526020018c815260200160008152602001600081526020016000815260200142815260200160006004811115610ad657610ad6611c62565b90528154600180820184556000938452602093849020835160099093020180546001600160a01b0319166001600160a01b0390931692909217825592820151818401556040820151600282015560608201516003820155608082015160048083019190915560a0830151600583015560c0830151600683015560e08301516007830155610100830151600883018054949593949193909260ff19909216918490811115610b8557610b85611c62565b021790555050604080518e8152602081018490529081018c90526001600160a01b038f16915086907ff6cc19e46a340ab5888d736bfc79aef72ae92d12d7b76319d72b0abc170868e69060600160405180910390a35050505098975050505050505050565b6000670de0b6b3a7640000610c0666b1a2bc2ec5000084612065565b610c10919061207c565b92915050565b60606003805480602002602001604051908101604052809291908181526020018280548015610c6457602002820191906000526020600020905b815481526020019060010190808311610c50575b5050505050905090565b610c76611562565b6005548110610c985760405163a2df1a7b60e01b815260040160405180910390fd5b600060058281548110610cad57610cad612020565b6000918252602082206009909102019150600882015460ff166004811115610cd757610cd7611c62565b14610cf557604051638e78f0cb60e01b815260040160405180910390fd5b34600003610d16576040516302875fe760e21b815260040160405180910390fd5b600081600401548260010154610d2c919061200d565b90506000813411610d3d5734610d3f565b815b90506000610d4d823461200d565b600086815260076020908152604080832033845290915281205491925003610d9e5760008581526006602090815260408220805460018101825590835291200180546001600160a01b031916331790555b600085815260076020908152604080832033845290915281208054849290610dc790849061209e565b9250508190555081846004016000828254610de2919061209e565b90915550506004840154604080518481526020810192909252339187917f567027d9aa89256c975e4bcd5e02580005533592e2fa5ed2dab60de95722ded8910160405180910390a38360010154846004015403610eb45760088401805460ff1916600117905542600585018190556003850154610e5e9161209e565b6006850181905560405190815285907f6b091f48a8332dcdc1976b1354aabaf0853e07e6c6a484feeaf5ce36df18979a9060200160405180910390a283546001850154610eb4916001600160a01b03169061158a565b8015610ec457610ec4338261158a565b50505050610ed26001600255565b50565b600060608060008060006060610ee9611603565b610ef1611630565b60408051600080825260208201909252600f60f81b9b939a50919850469750309650945092509050565b60038181548110610f2b57600080fd5b600091825260209091200154905081565b60606005805480602002602001604051908101604052809291908181526020016000905b8282101561102157600084815260209081902060408051610120810182526009860290920180546001600160a01b03168352600181015493830193909352600283015490820152600382015460608201526004808301546080830152600583015460a0830152600683015460c0830152600783015460e0830152600883015491929161010084019160ff90911690811115610ffd57610ffd611c62565b600481111561100e5761100e611c62565b8152505081526020019060010190610f60565b50505050905090565b611032611562565b60055481106110545760405163a2df1a7b60e01b815260040160405180910390fd5b60006005828154811061106957611069612020565b6000918252602090912060099091020190506001600882015460ff16600481111561109657611096611c62565b146110b457604051638e78f0cb60e01b815260040160405180910390fd5b80546001600160a01b031633146110de57604051631963d1e760e31b815260040160405180910390fd5b60006110e98361149f565b90508034101561110c57604051630443f54160e21b815260040160405180910390fd5b60088201805460ff19166002179055611125838261165d565b80341115611140576111403361113b833461200d565b61158a565b827f040cee90ee4799897c30ca04e5feb6fa43dbba9b6d084b4b257cdafd84ba013e8260405161117291815260200190565b60405180910390a25050610ed26001600255565b61118e611562565b60055481106111b05760405163a2df1a7b60e01b815260040160405180910390fd5b6000600582815481106111c5576111c5612020565b6000918252602082206009909102019150600882015460ff1660048111156111ef576111ef611c62565b1461120d57604051638e78f0cb60e01b815260040160405180910390fd5b80546001600160a01b0316331461123757604051631963d1e760e31b815260040160405180910390fd5b60088101805460ff191660041790556000828152600660205260408120905b815481101561132757600082828154811061127357611273612020565b60009182526020808320909101548783526007825260408084206001600160a01b0390921680855291909252912054909150801561131d5760008681526007602090815260408083206001600160a01b03861684529091528120556112d8828261158a565b816001600160a01b0316867fed24b9fa4f861b45ff9da926c38b430760dea5d5e28ec0008909082c2eadc1218360405161131491815260200190565b60405180910390a35b5050600101611256565b5060405183907fb71becc91961a6b43bcc5b3b630f3dce02c7fd444cf3738c4f188062b1caf5bc90600090a25050610ed26001600255565b600080670de0b6b3a7640000611376600a85612065565b611380919061207c565b9050838110611393576032915050610c10565b600061139f828661200d565b9050603281106113af57806113b2565b60325b95945050505050565b60055481106113dd5760405163a2df1a7b60e01b815260040160405180910390fd5b6000600582815481106113f2576113f2612020565b6000918252602090912060099091020190506001600882015460ff16600481111561141f5761141f611c62565b1461143d57604051638e78f0cb60e01b815260040160405180910390fd5b806006015442116114615760405163f7d8046b60e01b815260040160405180910390fd5b60088101805460ff1916600317905560405182907f0789b7097e8066538cfaa1132488b132e14ba5f0c938c8b7aaf8cf40356aab0b90600090a25050565b600080600583815481106114b5576114b5612020565b90600052602060002090600902019050612710816002015482600101546114dc9190612065565b6114e6919061207c565b81600101546114f5919061209e565b9392505050565b60006115066117c9565b905090565b6000610c106115186117c9565b8360405161190160f01b8152600281019290925260228201526042902090565b60008060008061154886866118f4565b9250925092506115588282611941565b5090949350505050565b600280540361158457604051633ee5aeb560e01b815260040160405180910390fd5b60028055565b6000826001600160a01b03168260405160006040518083038185875af1925050503d80600081146115d7576040519150601f19603f3d011682016040523d82523d6000602084013e6115dc565b606091505b50509050806115fe576040516312171d8360e31b815260040160405180910390fd5b505050565b60606115067f00000000000000000000000000000000000000000000000000000000000000006000611a03565b60606115067f00000000000000000000000000000000000000000000000000000000000000006001611a03565b60006005838154811061167257611672612020565b600091825260208083208684526006909152604083206009929092020160018101549093509091805b83548110156117c05760008482815481106116b8576116b8612020565b60009182526020808320909101548a83526007825260408084206001600160a01b039092168085529190925290822054909250908190036116fa5750506117b8565b855460009061170b9060019061200d565b841461172b578561171c838b612065565b611726919061207c565b611735565b611735858a61200d565b9050611741818661209e565b60008b81526007602090815260408083206001600160a01b03881684529091528120559450611770838261158a565b826001600160a01b03168a7fed24b9fa4f861b45ff9da926c38b430760dea5d5e28ec0008909082c2eadc121836040516117ac91815260200190565b60405180910390a35050505b60010161169b565b50505050505050565b6000306001600160a01b037f00000000000000000000000000000000000000000000000000000000000000001614801561182257507f000000000000000000000000000000000000000000000000000000000000000046145b1561184c57507f000000000000000000000000000000000000000000000000000000000000000090565b611506604080517f8b73c3c69bb8fe3d512ecc4cf759cc79239f7b179b0ffacaa9a75d522b39400f60208201527f0000000000000000000000000000000000000000000000000000000000000000918101919091527f000000000000000000000000000000000000000000000000000000000000000060608201524660808201523060a082015260009060c00160405160208183030381529060405280519060200120905090565b6000806000835160410361192e5760208401516040850151606086015160001a61192088828585611aae565b95509550955050505061193a565b50508151600091506002905b9250925092565b600082600381111561195557611955611c62565b0361195e575050565b600182600381111561197257611972611c62565b036119905760405163f645eedf60e01b815260040160405180910390fd5b60028260038111156119a4576119a4611c62565b036119ca5760405163fce698f760e01b8152600481018290526024015b60405180910390fd5b60038260038111156119de576119de611c62565b036119ff576040516335e2f38360e21b8152600481018290526024016119c1565b5050565b606060ff8314611a1d57611a1683611b7d565b9050610c10565b818054611a29906120b1565b80601f0160208091040260200160405190810160405280929190818152602001828054611a55906120b1565b8015611aa25780601f10611a7757610100808354040283529160200191611aa2565b820191906000526020600020905b815481529060010190602001808311611a8557829003601f168201915b50505050509050610c10565b600080807f7fffffffffffffffffffffffffffffff5d576e7357a4501ddfe92f46681b20a0841115611ae95750600091506003905082611b73565b604080516000808252602082018084528a905260ff891692820192909252606081018790526080810186905260019060a0016020604051602081039080840390855afa158015611b3d573d6000803e3d6000fd5b5050604051601f1901519150506001600160a01b038116611b6957506000925060019150829050611b73565b9250600091508190505b9450945094915050565b60606000611b8a83611bbc565b604080516020808252818301909252919250600091906020820181803683375050509182525060208101929092525090565b600060ff8216601f811115610c1057604051632cd44ac360e21b815260040160405180910390fd5b60405180610120016040528060006001600160a01b031681526020016000815260200160008152602001600081526020016000815260200160008152602001600081526020016000815260200160006004811115611c4457611c44611c62565b905290565b600060208284031215611c5b57600080fd5b5035919050565b634e487b7160e01b600052602160045260246000fd5b60018060a01b0381511682526020810151602083015260408101516040830152606081015160608301526080810151608083015260a081015160a083015260c081015160c083015260e081015160e08301526101008082015160058110611cef57634e487b7160e01b600052602160045260246000fd5b92019190915250565b6101208101610c108284611c78565b60008151808452602080850194506020840160005b83811015611d3857815187529582019590820190600101611d1c565b509495945050505050565b604080825283519082018190526000906020906060840190828701845b82811015611d855781516001600160a01b031684529284019290840190600101611d60565b5050508381036020850152611d9a8186611d07565b9695505050505050565b80356001600160a01b0381168114611dbb57600080fd5b919050565b60008060008060008060c08789031215611dd957600080fd5b611de287611da4565b9860208801359850604088013597606081013597506080810135965060a00135945092505050565b60008060008060008060008060e0898b031215611e2657600080fd5b611e2f89611da4565b97506020890135965060408901359550606089013594506080890135935060a0890135925060c089013567ffffffffffffffff80821115611e6f57600080fd5b818b0191508b601f830112611e8357600080fd5b813581811115611e9257600080fd5b8c6020828501011115611ea457600080fd5b6020830194508093505050509295985092959890939650565b6020815260006114f56020830184611d07565b6000815180845260005b81811015611ef657602081850181015186830182015201611eda565b506000602082860101526020601f19601f83011685010191505092915050565b60ff60f81b8816815260e060208201526000611f3560e0830189611ed0565b8281036040840152611f478189611ed0565b606084018890526001600160a01b038716608085015260a0840186905283810360c08501529050611f788185611d07565b9a9950505050505050505050565b6020808252825182820181905260009190848201906040850190845b81811015611fc957611fb5838551611c78565b928401926101209290920191600101611fa2565b50909695505050505050565b60008060408385031215611fe857600080fd5b50508035926020909101359150565b634e487b7160e01b600052601160045260246000fd5b81810381811115610c1057610c10611ff7565b634e487b7160e01b600052603260045260246000fd5b634e487b7160e01b600052604160045260246000fd5b60006020828403121561205e57600080fd5b5051919050565b8082028115828204841417610c1057610c10611ff7565b60008261209957634e487b7160e01b600052601260045260246000fd5b500490565b80820180821115610c1057610c10611ff7565b600181811c908216806120c557607f821691505b6020821081036120e557634e487b7160e01b600052602260045260246000fd5b5091905056fea26469706673582212208b31aa4270b5131a9ad987bed27f274a250ca3a27e7dca1e0c45a263922a3c8f64736f6c63430008180033",
  "devdoc": {
    "errors": {
      "ECDSAInvalidSignature()": [
        {
          "details": "The signature derives the `address(0)`."
        }
      ],
      "ECDSAInvalidSignatureLength(uint256)": [
        {
          "details": "The signature has an invalid length."
        }
      ],
      "ECDSAInvalidSignatureS(bytes32)": [
        {
          "details": "The signature has an S value that is in the upper half order."
        }
      ],
      "ReentrancyGuardReentrantCall()": [
        {
          "details": "Unauthorized reentrant call."
        }
      ]
    },
    "events": {
      "EIP712DomainChanged()": {
        "details": "MAY be emitted to signal that the domain could have changed."
      }
    },
    "kind": "dev",
    "methods": {
      "eip712Domain()": {
        "details": "See {IERC-5267}."
      }
    },
    "stateVariables": {
      "INTEREST_DISCOUNT_BPS_PER_KARMA": {
        "details": "Bps discount granted per 1 Karma, capped at the base rate."
      },
      "KARMA_BORROW_RATE": {
        "details": "ETH of borrow capacity granted per 1 Karma (18-decimal unit)."
      },
      "MIN_INTEREST_BPS": {
        "details": "Floor on interest after Karma-based discount (basis points)."
      },
      "MIN_KARMA": {
        "details": "Minimum Karma balance to borrow (18 decimals, matching real Karma ERC20)."
      },
      "buckets": {
        "details": "Fixed borrow denominations (ascending)."
      },
      "permitUsed": {
        "details": "Marks a specific permit digest as consumed."
      }
    },
    "title": "BucketLending",
    "version": 1
  },
  "userdoc": {
    "kind": "user",
    "methods": {
      "cancelLoan(uint256)": {
        "notice": "Cancel an Open loan and refund any contributors. Only the         stealth borrower may call (the Karma holder never appears)."
      },
      "domainSeparator()": {
        "notice": "Exposes the EIP-712 domain separator so off-chain signers can verify."
      },
      "fundLoan(uint256)": {
        "notice": "Top up an open loan. When the target is reached the bucket is         sent to the stealth borrower in a single transfer. Overpayment         is refunded to the caller in-call."
      },
      "getAdjustedInterestBps(uint256,uint256)": {
        "notice": "Interest in basis points after Karma-based discount."
      },
      "getMaxBorrow(uint256)": {
        "notice": "How much ETH a given Karma balance can borrow in a single bucket."
      },
      "hashBorrowPermit(address,uint256,uint256,uint256,uint256,bytes32)": {
        "notice": "Computes the EIP-712 digest the Karma holder should sign."
      },
      "markDefault(uint256)": {
        "notice": "Anyone can flag an overdue funded loan as defaulted. State change only —         we cannot slash Karma (the real Karma token is read-only from external         contracts) and storing the Karma holder's address would break privacy."
      },
      "repayLoan(uint256)": {
        "notice": "Repay principal + interest. Only the stealth borrower may call."
      },
      "requestLoanWithPermit(address,uint256,uint256,uint256,uint256,bytes32,bytes)": {
        "notice": "Open a new loan against a stealth address, authorized by the         off-chain signature of a Karma holder. Must be called by the         stealth address itself — never by the Karma holder."
      }
    },
    "notice": "Privacy-first, Karma-gated, stealth-operated lending. Privacy model:   - Every on-chain action (requestLoan, fundLoan, repayLoan, cancelLoan,     markDefault) is authored by a stealth address. The primary identity     holding Karma never sends an on-chain transaction to this contract.   - To gate borrowing by Karma without linking the primary identity, the     Karma holder signs an off-chain EIP-712 `BorrowPermit` authorizing a     specific stealth to open a specific bucket. The stealth submits that     permit. The contract `ecrecover`s the signer, reads their Karma, and     verifies — but never stores or emits the signer's address.   - Replay is prevented by marking each permit digest as used. The digest     is a hash and does not reveal the signer.   - No Karma awards / no Karma slashing: the real Karma token on Status is     read-only from external contracts, and any on-chain identity tracking     would break the privacy guarantee. What's still observable:   - The Karma-holder signature sits in the request transaction's calldata.     A determined observer can `ecrecover` it to recover the signer. Making     that link strongly private requires a ZK proof (\"I know an address with     Karma ≥ N\") and is out of scope here. Using a fresh `salt` per permit     prevents correlation across a single signer's loans.",
    "version": 1
  },
  "storageLayout": {
    "storage": [
      {
        "astId": 1060,
        "contract": "contracts/BucketLending.sol:BucketLending",
        "label": "_nameFallback",
        "offset": 0,
        "slot": "0",
        "type": "t_string_storage"
      },
      {
        "astId": 1062,
        "contract": "contracts/BucketLending.sol:BucketLending",
        "label": "_versionFallback",
        "offset": 0,
        "slot": "1",
        "type": "t_string_storage"
      },
      {
        "astId": 35,
        "contract": "contracts/BucketLending.sol:BucketLending",
        "label": "_status",
        "offset": 0,
        "slot": "2",
        "type": "t_uint256"
      },
      {
        "astId": 2512,
        "contract": "contracts/BucketLending.sol:BucketLending",
        "label": "buckets",
        "offset": 0,
        "slot": "3",
        "type": "t_array(t_uint256)dyn_storage"
      },
      {
        "astId": 2538,
        "contract": "contracts/BucketLending.sol:BucketLending",
        "label": "permitUsed",
        "offset": 0,
        "slot": "4",
        "type": "t_mapping(t_bytes32,t_bool)"
      },
      {
        "astId": 2568,
        "contract": "contracts/BucketLending.sol:BucketLending",
        "label": "_loans",
        "offset": 0,
        "slot": "5",
        "type": "t_array(t_struct(Loan)2564_storage)dyn_storage"
      },
      {
        "astId": 2573,
        "contract": "contracts/BucketLending.sol:BucketLending",
        "label": "_lenders",
        "offset": 0,
        "slot": "6",
        "type": "t_mapping(t_uint256,t_array(t_address)dyn_storage)"
      },
      {
        "astId": 2579,
        "contract": "contracts/BucketLending.sol:BucketLending",
        "label": "_contribution",
        "offset": 0,
        "slot": "7",
        "type": "t_mapping(t_uint256,t_mapping(t_address,t_uint256))"
      }
    ],
    "types": {
      "t_address": {
        "encoding": "inplace",
        "label": "address",
        "numberOfBytes": "20"
      },
      "t_array(t_address)dyn_storage": {
        "base": "t_address",
        "encoding": "dynamic_array",
        "label": "address[]",
        "numberOfBytes": "32"
      },
      "t_array(t_struct(Loan)2564_storage)dyn_storage": {
        "base": "t_struct(Loan)2564_storage",
        "encoding": "dynamic_array",
        "label": "struct BucketLending.Loan[]",
        "numberOfBytes": "32"
      },
      "t_array(t_uint256)dyn_storage": {
        "base": "t_uint256",
        "encoding": "dynamic_array",
        "label": "uint256[]",
        "numberOfBytes": "32"
      },
      "t_bool": {
        "encoding": "inplace",
        "label": "bool",
        "numberOfBytes": "1"
      },
      "t_bytes32": {
        "encoding": "inplace",
        "label": "bytes32",
        "numberOfBytes": "32"
      },
      "t_enum(Status)2544": {
        "encoding": "inplace",
        "label": "enum BucketLending.Status",
        "numberOfBytes": "1"
      },
      "t_mapping(t_address,t_uint256)": {
        "encoding": "mapping",
        "key": "t_address",
        "label": "mapping(address => uint256)",
        "numberOfBytes": "32",
        "value": "t_uint256"
      },
      "t_mapping(t_bytes32,t_bool)": {
        "encoding": "mapping",
        "key": "t_bytes32",
        "label": "mapping(bytes32 => bool)",
        "numberOfBytes": "32",
        "value": "t_bool"
      },
      "t_mapping(t_uint256,t_array(t_address)dyn_storage)": {
        "encoding": "mapping",
        "key": "t_uint256",
        "label": "mapping(uint256 => address[])",
        "numberOfBytes": "32",
        "value": "t_array(t_address)dyn_storage"
      },
      "t_mapping(t_uint256,t_mapping(t_address,t_uint256))": {
        "encoding": "mapping",
        "key": "t_uint256",
        "label": "mapping(uint256 => mapping(address => uint256))",
        "numberOfBytes": "32",
        "value": "t_mapping(t_address,t_uint256)"
      },
      "t_string_storage": {
        "encoding": "bytes",
        "label": "string",
        "numberOfBytes": "32"
      },
      "t_struct(Loan)2564_storage": {
        "encoding": "inplace",
        "label": "struct BucketLending.Loan",
        "members": [
          {
            "astId": 2546,
            "contract": "contracts/BucketLending.sol:BucketLending",
            "label": "borrowerStealth",
            "offset": 0,
            "slot": "0",
            "type": "t_address"
          },
          {
            "astId": 2548,
            "contract": "contracts/BucketLending.sol:BucketLending",
            "label": "bucketAmount",
            "offset": 0,
            "slot": "1",
            "type": "t_uint256"
          },
          {
            "astId": 2550,
            "contract": "contracts/BucketLending.sol:BucketLending",
            "label": "interestBps",
            "offset": 0,
            "slot": "2",
            "type": "t_uint256"
          },
          {
            "astId": 2552,
            "contract": "contracts/BucketLending.sol:BucketLending",
            "label": "duration",
            "offset": 0,
            "slot": "3",
            "type": "t_uint256"
          },
          {
            "astId": 2554,
            "contract": "contracts/BucketLending.sol:BucketLending",
            "label": "fundedAmount",
            "offset": 0,
            "slot": "4",
            "type": "t_uint256"
          },
          {
            "astId": 2556,
            "contract": "contracts/BucketLending.sol:BucketLending",
            "label": "fundedAt",
            "offset": 0,
            "slot": "5",
            "type": "t_uint256"
          },
          {
            "astId": 2558,
            "contract": "contracts/BucketLending.sol:BucketLending",
            "label": "dueTime",
            "offset": 0,
            "slot": "6",
            "type": "t_uint256"
          },
          {
            "astId": 2560,
            "contract": "contracts/BucketLending.sol:BucketLending",
            "label": "createdAt",
            "offset": 0,
            "slot": "7",
            "type": "t_uint256"
          },
          {
            "astId": 2563,
            "contract": "contracts/BucketLending.sol:BucketLending",
            "label": "status",
            "offset": 0,
            "slot": "8",
            "type": "t_enum(Status)2544"
          }
        ],
        "numberOfBytes": "288"
      },
      "t_uint256": {
        "encoding": "inplace",
        "label": "uint256",
        "numberOfBytes": "32"
      }
    }
  }
}